{
  "contractName": "Tcoin",
  "abi": [
    {
      "constant": true,
      "inputs": [],
      "name": "owner",
      "outputs": [
        {
          "name": "",
          "type": "address"
        }
      ],
      "payable": false,
      "stateMutability": "view",
      "type": "function"
    },
    {
      "inputs": [],
      "payable": false,
      "stateMutability": "nonpayable",
      "type": "constructor"
    },
    {
      "constant": false,
      "inputs": [],
      "name": "recieveCoin",
      "outputs": [],
      "payable": false,
      "stateMutability": "nonpayable",
      "type": "function"
    },
    {
      "constant": false,
      "inputs": [
        {
          "name": "_sender",
          "type": "address"
        },
        {
          "name": "_reciever",
          "type": "address"
        },
        {
          "name": "_amount",
          "type": "uint256"
        }
      ],
      "name": "sendCoin",
      "outputs": [
        {
          "name": "",
          "type": "bool"
        }
      ],
      "payable": false,
      "stateMutability": "nonpayable",
      "type": "function"
    },
    {
      "constant": false,
      "inputs": [
        {
          "name": "_buyer",
          "type": "address"
        },
        {
          "name": "_amount",
          "type": "uint256"
        }
      ],
      "name": "buyItem",
      "outputs": [
        {
          "name": "",
          "type": "bool"
        }
      ],
      "payable": false,
      "stateMutability": "nonpayable",
      "type": "function"
    },
    {
      "constant": true,
      "inputs": [
        {
          "name": "_sender",
          "type": "address"
        }
      ],
      "name": "checkCoin",
      "outputs": [
        {
          "name": "",
          "type": "uint256"
        }
      ],
      "payable": false,
      "stateMutability": "view",
      "type": "function"
    },
    {
      "constant": false,
      "inputs": [
        {
          "name": "_reciever",
          "type": "address"
        }
      ],
      "name": "add1000",
      "outputs": [],
      "payable": true,
      "stateMutability": "payable",
      "type": "function"
    },
    {
      "constant": false,
      "inputs": [
        {
          "name": "_reciever",
          "type": "address"
        }
      ],
      "name": "add2000",
      "outputs": [],
      "payable": true,
      "stateMutability": "payable",
      "type": "function"
    }
  ],
  "bytecode": "0x608060405234801561001057600080fd5b50336000806101000a81548173ffffffffffffffffffffffffffffffffffffffff021916908373ffffffffffffffffffffffffffffffffffffffff16021790555061068a806100606000396000f300608060405260043610610083576000357c0100000000000000000000000000000000000000000000000000000000900463ffffffff1680630b40bd8814610088578063247fcbb31461010d5780633fef68ec146101435780638da5cb5b146101795780639f37092a146101d0578063e3bb7ec814610235578063f15cabec1461028c575b600080fd5b34801561009457600080fd5b506100f3600480360381019080803573ffffffffffffffffffffffffffffffffffffffff169060200190929190803573ffffffffffffffffffffffffffffffffffffffff169060200190929190803590602001909291905050506102a3565b604051808215151515815260200191505060405180910390f35b610141600480360381019080803573ffffffffffffffffffffffffffffffffffffffff16906020019092919050505061039b565b005b610177600480360381019080803573ffffffffffffffffffffffffffffffffffffffff169060200190929190505050610403565b005b34801561018557600080fd5b5061018e61046a565b604051808273ffffffffffffffffffffffffffffffffffffffff1673ffffffffffffffffffffffffffffffffffffffff16815260200191505060405180910390f35b3480156101dc57600080fd5b5061021b600480360381019080803573ffffffffffffffffffffffffffffffffffffffff1690602001909291908035906020019092919050505061048f565b604051808215151515815260200191505060405180910390f35b34801561024157600080fd5b50610276600480360381019080803573ffffffffffffffffffffffffffffffffffffffff169060200190929190505050610539565b6040518082815260200191505060405180910390f35b34801561029857600080fd5b506102a1610582565b005b600081600160008673ffffffffffffffffffffffffffffffffffffffff1673ffffffffffffffffffffffffffffffffffffffff1681526020019081526020016000205410156102f55760009050610394565b81600160008673ffffffffffffffffffffffffffffffffffffffff1673ffffffffffffffffffffffffffffffffffffffff1681526020019081526020016000206000828254039250508190555081600160008573ffffffffffffffffffffffffffffffffffffffff1673ffffffffffffffffffffffffffffffffffffffff16815260200190815260200160002060008282540192505081905550600190505b9392505050565b67016345785d8a0000341415156103b157600080fd5b6107d0600160008373ffffffffffffffffffffffffffffffffffffffff1673ffffffffffffffffffffffffffffffffffffffff1681526020019081526020016000206000828254019250508190555050565b66d529ae9e8600003414151561041857600080fd5b6103e8600160008373ffffffffffffffffffffffffffffffffffffffff1673ffffffffffffffffffffffffffffffffffffffff1681526020019081526020016000206000828254019250508190555050565b6000809054906101000a900473ffffffffffffffffffffffffffffffffffffffff1681565b600081600160008573ffffffffffffffffffffffffffffffffffffffff1673ffffffffffffffffffffffffffffffffffffffff1681526020019081526020016000205410156104e15760009050610533565b81600160008573ffffffffffffffffffffffffffffffffffffffff1673ffffffffffffffffffffffffffffffffffffffff16815260200190815260200160002060008282540392505081905550600190505b92915050565b6000600160008373ffffffffffffffffffffffffffffffffffffffff1673ffffffffffffffffffffffffffffffffffffffff168152602001908152602001600020549050919050565b6000809054906101000a900473ffffffffffffffffffffffffffffffffffffffff1673ffffffffffffffffffffffffffffffffffffffff163373ffffffffffffffffffffffffffffffffffffffff161415156105dd57600080fd5b6000809054906101000a900473ffffffffffffffffffffffffffffffffffffffff1673ffffffffffffffffffffffffffffffffffffffff166108fc3073ffffffffffffffffffffffffffffffffffffffff16319081150290604051600060405180830381858888f1935050505015801561065b573d6000803e3d6000fd5b505600a165627a7a72305820bf7012caae11e82951f85f6e28e7cfe75ca44635af4e5183ee16fee8acb10aa10029",
  "source": "pragma solidity ^0.4.17;\n\ncontract Tcoin{\n    address public owner;\n    mapping(address => uint) coin;\n    function Tcoin(){\n        owner = msg.sender;\n    }\n    modifier onlyOwner() {\n        require(msg.sender == owner);\n        _;\n    }\n    function recieveCoin() onlyOwner{\n        owner.transfer(this.balance);\n    }\n    function sendCoin(address _sender, address _reciever, uint _amount) public returns(bool){\n        if(coin[_sender] < _amount) return false;\n        coin[_sender] -= _amount;\n        coin[_reciever] += _amount;\n        return true;\n        }\n    function buyItem(address _buyer, uint _amount) public returns(bool){\n        if(coin[_buyer] < _amount) return false;\n        coin[_buyer] -= _amount;\n        return true;\n    }\n    \n    function checkCoin(address _sender) public view returns(uint){\n        return coin[_sender];\n    }\n    // Pay method\n    function add1000(address _reciever) public payable{\n        require(msg.value == 0.06 ether);\n        coin[_reciever] += 1000;\n    }\n    function add2000(address _reciever) public payable{\n        require(msg.value == 0.1 ether);\n        coin[_reciever] += 2000;\n    }\n}",
  "sourcePath": "/Users/punmanat/Desktop/Tcoin_express/contracts/Tcoin.sol",
  "compiler": {
    "name": "solc",
    "version": "0.4.24+commit.e67f0147.Emscripten.clang"
  },
  "schemaVersion": "2.0.0",
  "updatedAt": "2018-09-17T05:37:24.863Z"
}